S010000062617263616C61322E737265631C
S11300000C9434000C9451000C9451000C94510045
S11300100C9451000C9451000C9451000C94510018
S11300200C9451000C9451000C9451000C94510008
S11300300C9451000C9451000C9451000C945100F8
S11300400C9451000C9451000C946B020C94A70274
S11300500C9451000C9451000C9451000C945100D8
S11300600C9451000C94510011241FBECFEFD8E022
S1130070DEBFCDBF12E0A0E0B1E0E4EAF6E002C0EA
S113008005900D92AC33B107D9F722E0ACE3B2E0AE
S113009001C01D92A238B207E1F70E9423010C941B
S11300A050030C940000389A409A089528E030E0F8
S11300B080E019C045E04A95F1F70000309BFACF83
S11300C0309B0AC090E045E04A95F1F700009F5F3D
S11300D03099F9CF983210F4880F02C0880F8160EC
S11300E02150310919F0309BE5CFEACF0895CF9222
S11300F0DF92EF92FF920F931F93CF93DF936C01E4
S11301007B018A01E90140982FEF89EF90E02150AB
S113011080409040E1F700C00000409A3898309940
S1130120FECF309BFECF3099FECF0E945600F601E1
S113013080830E945600F70180830E945600F801D4
S113014080830E94560088830E94560090E0F60146
S11301504081F701208130E0240F311DF8014081F6
S1130160240F311D4881240F311D8217930741F05C
S11301708FEFF6018083F7018083F8018083888301
S1130180409A389ADF91CF911F910F91FF90EF9091
S1130190DF90CF900895CF93DF9300D000D000D0AC
S11301A0CDB7DEB71A821982FE01339684E0DF01EF
S11301B01D928A95E9F7CE0101960E94340264E10A
S11301C071E0CE0101960E941203892B41F487E16C
S11301D091E00E94F00181E080933C022BC063E235
S11301E071E0CE0101960E941203892B61F487E22B
S11301F091E00E94F00180913C02811110923C0236
S11302000E94D80117C061E371E0CE0101960E94FB
S11302101203892B59F40E9452020E94D201809148
S11302203C02882339F010923C0204C080E091E043
S11302300E94F00126960FB6F894DEBF0FBECDBF24
S1130240DF91CF910895CF93DF93CDB7DEB7299790
S11302500FB6F894DEBF0FBECDBF0E94530087E6F1
S11302600E94C4010E94CC010E94D2010E94DE01BE
S11302700E94E40178940E94520201E010E00E947E
S1130280E402882351F00E94CB00812F0E94E702F0
S11302908DEB91E00E94F001F2CF80913C02882323
S11302A071F39E012E5F3F4FAE014F5F5F4FBE0162
S11302B06C5F7F4FCE0103960E9477008B81902F55
S11302C029812F3F09F4912F992309F44FC0902FCE
S11302D08F3F09F4912F992309F448C04AE0BE01E5
S11302E06B5F7F4F90E00E941B0385E391E00E94C7
S11302F0F001CE0105960E94F00185E591E00E948F
S1130300F0018C814AE0BE016B5F7F4F90E00E9458
S11303101B03CE0105960E94F0018FE391E00E9439
S1130320F00182E491E00E94F00189814AE0BE017B
S11303306B5F7F4F90E00E941B03CE0105960E94E5
S1130340F00185E591E00E94F0018A814AE0BE0156
S11303506B5F7F4F90E00E941B03CE0105960E94C5
S1130360F0018FE391E00E94F00104C080E591E088
S11303700E94F0012FEF87E99AE3215080409040DA
S1130380E1F700C000007BCF1092C10096E090938B
S1130390C2008093C4000895E1ECF0E0808188609D
S11303A080830895E1ECF0E0808180628083089589
S11303B0E1ECF0E080818F7D80830895E1ECF0E052
S11303C08081806180830895E1ECF0E08081806821
S11303D080830895E0ECF0E0808185FFFDCF0895EF
S11303E0CF92DF92EF92FF920F931F93CF93FC0172
S11303F020812223B1F07C018C01C0E00F2EF6ECA9
S1130400CF2ED12CF02D0E94EA01F8019081F60143
S11304109083CF5F87010C0F111DF801908191111A
S1130420F2CFCF911F910F91FF90EF90DF90CF907B
S11304300895DC0120917F0290917E02291770F4C7
S1130440E0917F02F0E0E35CFD4F80818C9380912A
S11304507F028F5F80937F0281E0089510927F0274
S113046010927E0280E008950F931F93CF93DF9341
S11304701F92CDB7DEB78C011982CE0101960E947E
S11304801902882331F08981F80181938F018A3020
S1130490A1F7F801108281E00F90DF91CF911F91B5
S11304A00F91089587E591E00E94F0018FE791E0B4
S11304B00E94F00180EC91E00E94F0018AEE91E04C
S11304C00E94F00181E192E00E94F00188E392E051
S11304D00E94F00108951F920F920FB60F921124FB
S11304E08F93EF93FF93E0917E028091C600F0E03A
S11304F0E35CFD4F8083E0917E02F0E0E35CFD4F1E
S113050080818D3051F4E0917E02F0E0E35CFD4F98
S1130510108281E080937D0212C080917E028F312F
S113052049F410927E02E0917E02F0E0E35CFD4F1C
S113053081E6808380917E028F5F80937E02FF91AB
S1130540EF918F910F900FBE0F901F9018951F92EF
S11305500F920FB60F9211242F933F934F935F93F3
S11305606F937F938F939F93AF93BF93EF93FF9377
S11305709091810280918002981799F0E091810214
S1130580F0E0E35AFD4F80818093C60080918102A0
S113059090E001966FE170E00E94EA02809381028C
S11305A002C00E94D801FF91EF91BF91AF919F913A
S11305B08F917F916F915F914F913F912F910F9008
S11305C00FBE0F901F90189580917D02089580931F
S11305D07D02089597FB072E16F4009407D077FD4B
S11305E009D00E94FE0207FC05D03EF49095819547
S11305F09F4F0895709561957F4F0895AA1BBB1B6B
S113060051E107C0AA1FBB1FA617B70710F0A61B0E
S1130610B70B881F991F5A95A9F780959095BC012F
S1130620CD010895FB01DC018D9101908019011029
S1130630D9F3990B0895BB274A3031F4992322F456
S1130640BDE2909581959F4F0C942703BB27FB0136
S11306505527AA27880F991FAA1FA41710F0A41BB7
S113066083955051B9F7A05DAA3308F0A95DA19311
S1130670009779F7B111B1931192CB010C94400317
S1130680DC01FC01672F71917723E1F7329704C0F5
S11306907C916D9370836291AE17BF07C8F3089580
S10706A0F894FFCFF8
S11306A4436F6D616E646F206E6F2076616C696454
S11306B46F0A0D004F4E00456E63656E6469646F86
S11306C40A0D004F4646004170616761646F0A0D6C
S11306D4005253540048756D656461643A20000DFA
S11306E40A0054656D70657261747572613A200014
S11306F44572726F722E0052656769737472616415
S11307046F722064652074656D70657261747572AE
S11307146120792068756D65646164200A0D00495F
S11307246E677265736520616C67756E6F206465AE
S1130734206573746F7320636F6D616E646F7320CF
S1130744656E206C61207465726D696E616C2070D5
S113075461726120696E69636961723A200A0D00ED
S1130764274F4E273C456E7465723E20202D20454C
S11307746E6369656E646520656C20526567697390
S1130784747261646F72200A0D00274F4646273C39
S1130794456E7465723E202D204170616761206549
S11307A46C205265676973747261646F72200A0DF8
S11307B40027525354273C456E7465723E202D2005
S11307C45265696E6963696120656C2070726F6734
S10F07D472616D61200A0D003E0A0000F5
S9030000FC
